:100000000C9434000C94A3000C9451000C945100F7
:100010000C9451000C9451000C9451000C9451001C
:100020000C9451000C9451000C9451000C9451000C
:100030000C9451000C9451000C9451000C945100FC
:100040000C9451000C9451000C9451000C945100EC
:100050000C9451000C9451000C9451000C945100DC
:100060000C9451000C94510011241FBECFEFD8E026
:10007000DEBFCDBF11E0A0E0B1E0E4E8FFE002C0E8
:1000800005900D92AC30B107D9F721E0ACE0B1E0BA
:1000900001C01D92AA31B207E1F70E94C7010C947A
:1000A000C0070C940000CF93DF9300D000D000D0A5
:1000B000CDB7DEB7DC01CE010196FC019F01281B04
:1000C000390B261737071CF42D912193F7CFFC012C
:1000D000E60FF71F10824AE050E060E070E00E94F7
:1000E0002102CB0126960FB6F894DEBF0FBECDBF1E
:1000F000DF91CF910895CF93DF9300D000D000D04F
:10010000CDB7DEB7DC01CE010196FC019F01281BB3
:10011000390B261737071CF42D912193F7CFFC01DB
:10012000E60FF71F108240E150E060E070E00E94AF
:100130002102CB0126960FB6F894DEBF0FBECDBFCD
:10014000DF91CF9108951F920F920FB60F92112455
:100150008F939F93F89486B590E090930D018093D0
:100160000C0116BC18959F918F910F900FBE0F90A8
:100170001F9018959091C00095FFFCCF8093C6000A
:1001800080E090E008958091C00087FFFCCF8091CF
:10019000C60090E0089563EC70E08AEB90E00E9466
:1001A0004003EEE0F1E09183808393838283958323
:1001B00084830895CF93DF93DC01EB011092C0009C
:1001C0001092C1001092C2004230510571F04330CC
:1001D0005105B1F0452BC1F48091C2008F7E809310
:1001E000C2008091C2008F7D08C08091C2008F7EC6
:1001F0008093C2008091C20080628093C2000EC0D2
:100200008091C2008061F4CF9091C2009F7E909354
:10021000C2009091C2009F7D9093C2009091C20055
:100220002130310511F4977F01C098609093C2008E
:100230009091C00092609093C0008091C00081FDB9
:1002400005C020E130E040E050E004C028E030E0AC
:1002500040E050E00E94FF019B01AC0160E074E2CD
:1002600084EF90E00E94DD01215031093093C500F8
:100270002093C400C730D10531F174F4C530D105E5
:10028000C9F0269751F58091C2008D7F8093C200FE
:100290008091C2008B7F1BC0C830D105F1F0299737
:1002A000E1F48091C20082608093C2008091C2001C
:1002B00084600DC08091C2008D7F8093C2008091C8
:1002C000C2008B7F12C08091C2008D7F09C08093D5
:1002D000C2008091C10084600DC08091C200826024
:1002E0008093C2008091C20084608093C20080919C
:1002F000C1008B7F8093C1008091C1008061809399
:10030000C1008091C10088608093C1000E94CB0031
:1003100080E090E0DF91CF910895CF92DF92FF923D
:100320000F931F93CF93DF938C01F62E6C01C0E0E7
:10033000D0E0C331D105A1F080E090E00E94C3007D
:100340008F1105C0F801EC0FFD1F108209C090EE5F
:10035000980F9F3570F72196F60181936F01E9CFD1
:10036000F801138AC231D10531F48289F81629F0D7
:100370008FEF9FEF04C0CE0102C082E190E0DF91D9
:10038000CF911F910F91FF90DF90CF90089521E0C2
:1003900030E040E050E068E070E080E895E20E94E4
:1003A000DA0086E091E09F938F930E948B0352982E
:1003B0000F900F9080E090E00895A1E21A2EAA1B02
:1003C000BB1BFD010DC0AA1FBB1FEE1FFF1FA21705
:1003D000B307E407F50720F0A21BB30BE40BF50B02
:1003E000661F771F881F991F1A9469F7609570958B
:1003F000809590959B01AC01BD01CF010895B7FF99
:100400000C9407020E940702821B930B08950E941E
:100410001202A59F900DB49F900DA49F800D911D79
:1004200011240895A29FB001B39FC001A39F700D36
:10043000811D1124911DB29F700D811D1124911DEC
:100440000895A0E0B0E0E7E2F2E00C948A075C01D6
:100450006B017A016115710519F0FB0191838083AD
:10046000E114F10429F0C7010297839708F0E5C071
:10047000E5012196F5011081812F90E00E9437035C
:10048000892B11F05E01F4CF1D3229F42196F5017C
:10049000118101E007C01B3221F4E5012296F5012C
:1004A000118100E0E114F10409F1F0E1EF16F1042B
:1004B00029F43FC010E3E114F10421F128E0E21631
:1004C000F10401F154F4E2E0EE16F10421F5812C7F
:1004D000912CA12CB0E4BB2E3EC0FAE0EF16F10443
:1004E00039F020E1E216F104B1F430C0103319F113
:1004F000FAE0EF2EF12CACEC8A2E982CA82CACE074
:10050000BA2E29C078E0E72EF12C812C912CA12C59
:10051000E0E1BE2E20C060E070E080E090E897014E
:100520000F2C000C440B550B0E94DD0149015A01B0
:1005300012C0103359F488818F7D883509F0BACF05
:1005400019812296026080E1E82EF12C812C912CF9
:10055000A12C68E0B62E40E060E070E0CB012701FE
:100560000F2C000C66087708FE0150ED352E310E79
:1005700029E0231570F42FEB210F2A3118F439EC00
:10058000332E06C02FE9210F2A3118F529EA322E21
:10059000310E232D30E02E153F05DCF447FD16C04B
:1005A00086169706A806B90670F0A30192010E946C
:1005B0007907630D711D811D911D613071058105E4
:1005C00020E8920710F04FEF01C041E02196108122
:1005D000CBCF202F2170C114D10471F0442329F016
:1005E0002197F601D183C08307C001FF19C022976C
:1005F000F601D183C08314C047FF12C0222329F023
:1006000060E070E080E090E804C06FEF7FEF8FEF74
:100610009FE722E230E0309315012093140109C0D6
:10062000222381F090958095709561957F4F8F4F33
:100630009F4F462F372F282F12C040E030E020E098
:1006400090E00DC097FFF5CF82E290E09093150106
:10065000809314016FEF7FEF8FEF9FE7EACF642F56
:10066000732F822FCDB7DEB7E1E10C94A60791116D
:100670000C94BF06803219F089508550C8F7089550
:100680000F931F93CF93DF93009731F4611571059A
:1006900019F480E090E03AC08B01EC016EE070E06C
:1006A00081E090E00E948205FC01892B91F380E8B3
:1006B00083830115110571F01387028781E8838315
:1006C00080910E0190910F01892B21F4F0930F017D
:1006D000E0930E012097C9F0D187C08783818260A3
:1006E00083838091100190911101892B71F4F09313
:1006F0001101E09310018091120190911301892B57
:1007000021F4F0931301E0931201CF01DF91CF9117
:100710001F910F910895A0E0B0E0E1E9F3E00C949F
:100720009907AE014B5F5F4FFA0161917191AF0183
:1007300080911001909111010E94A103E2E00C94BC
:10074000B507ABE0B0E0E7EAF3E00C9489076C0191
:100750007B018A01FC0117821682838181FFCCC153
:10076000CE0101963C01F6019381F70193FD85913D
:1007700093FF81917F01882309F4BAC1853239F44E
:1007800093FD859193FF81917F01853229F4B60114
:1007900090E00E94DF06E7CF912C212C312CFFE165
:1007A000F315D8F08B3279F038F4803279F0833257
:1007B000A1F4232D20611DC08D3261F0803369F4D6
:1007C000232D216016C0832D8260382EE32DE46036
:1007D0003E2E2AC0F32DF8601DC037FC2DC020ED41
:1007E000280F2A3040F08E32B9F436FC81C1232D17
:1007F0002064322E19C036FE06C08AE0989E200D75
:100800001124922E11C0EAE02E9E200D1124222EDA
:10081000F32DF0623F2E08C08C3621F4832D8068C2
:10082000382E02C0883641F4F70193FD859193FF7D
:1008300081917F018111B3CF982F9F7D9554933083
:1008400028F40C5F1F4F9FE399830DC0833631F06E
:10085000833771F0833509F059C021C0F8018081D8
:1008600089830E5F1F4F88248394912C530113C0FA
:100870002801F2E04F0E511CF801A080B18036FE35
:1008800003C0692D70E002C06FEF7FEFC5010E94C9
:10089000D4064C018201F32DFF773F2E16C02801AC
:1008A00022E0420E511CF801A080B18036FE03C048
:1008B000692D70E002C06FEF7FEFC5010E94C20694
:1008C0004C01F32DF0683F2E820133FC1BC0822DBA
:1008D00090E088169906B0F4B60180E290E00E949C
:1008E000DF062A94F4CFF50137FC859137FE81911C
:1008F0005F01B60190E00E94DF0621102A9421E0FA
:10090000821A91088114910471F7E8C0843611F0BD
:10091000893641F5F80137FE07C060817181828117
:1009200093810C5F1F4F08C060817181072E000CFE
:10093000880B990B0E5F1F4FF32DFF763F2E97FF0D
:1009400009C090958095709561957F4F8F4F9F4F0F
:10095000F0683F2E2AE030E0A3010E941B07882E9A
:10096000861845C0853731F4232D2F7EB22E2AE01C
:1009700030E025C0932D997FB92E8F36C1F018F441
:10098000883579F0B5C0803719F0883721F0B0C0CC
:10099000E92FE061BE2EB4FE0DC0FB2DF460BF2E2A
:1009A00009C034FE0AC0292F2660B22E06C028E0F6
:1009B00030E005C020E130E002C020E132E0F80183
:1009C000B7FE07C060817181828193810C5F1F4FE8
:1009D00006C06081718180E090E00E5F1F4FA3012F
:1009E0000E941B07882E8618FB2DFF773F2E36FEB0
:1009F0000DC0232D2E7FA22E891458F434FE0BC077
:100A000032FC09C0832D8E7EA82E05C0B82CA32CE5
:100A100003C0B82C01C0B92CA4FE0FC0FE01E80D24
:100A2000F11D8081803321F49A2D997EA92E09C071
:100A3000A2FE06C0B394B39404C08A2D867809F050
:100A4000B394A3FC11C0A0FE06C0B21488F4280C15
:100A5000922C9B180EC0B21460F4B60180E290E0B4
:100A60000E94DF06B394F7CFB21418F42B1802C01B
:100A7000982C212CA4FE10C0B60180E390E00E94C7
:100A8000DF06A2FE17C0A1FC03C088E790E002C009
:100A900088E590E0B6010CC08A2D867859F0A1FE59
:100AA00002C08BE201C080E2A7FC8DE2B60190E0BB
:100AB0000E94DF06891438F4B60180E390E00E94BA
:100AC000DF069A94F7CF8A94F301E80DF11D808137
:100AD000B60190E00E94DF068110F5CF222009F4D4
:100AE00042CEB60180E290E00E94DF062A94F6CF63
:100AF000F6018681978102C08FEF9FEF2B96E2E18E
:100B00000C94A5070F931F93CF93DF93869F8001CB
:100B1000879F100D969F100D1124C8010E949E05FD
:100B2000EC01009729F0A80160E070E00E94CD067A
:100B3000CE01DF91CF911F910F9108950F931F93D5
:100B4000CF93DF938230910510F482E090E0E09142
:100B50001801F091190120E030E0A0E0B0E03097FA
:100B600019F1408151810281138148175907C8F05A
:100B70008417950769F4109731F012960C93129729
:100B800013961C9327C0009318011093190122C0DB
:100B90002115310519F04217530718F49A01BD01C8
:100BA000EF01DF01F801DBCF21153105F9F0281B3A
:100BB000390B2430310580F48A819B8161157105E0
:100BC00021F0FB019383828304C0909319018093E9
:100BD0001801FE01329644C0FE01E20FF31F81931B
:100BE000919322503109398328833AC0209116010C
:100BF00030911701232B41F4209102013091030120
:100C000030931701209316012091000130910101CA
:100C10002115310541F42DB73EB7409104015091A3
:100C20000501241B350BE0911601F0911701E21725
:100C3000F307A0F42E1B3F0B2817390778F0AC01FF
:100C40004E5F5F4F2417350748F04E0F5F1F5093DC
:100C50001701409316018193919302C0E0E0F0E008
:100C6000CF01DF91CF911F910F910895CF93DF9323
:100C7000009709F481C0FC01329713821282A0917F
:100C80001801B0911901109781F420813181820FF0
:100C9000931F20911601309117012817390751F53C
:100CA000F0931701E093160167C0ED0120E030E0FA
:100CB000CE17DF0740F44A815B819E014115510543
:100CC000F1F0EA01F5CFD383C28340815181840FD3
:100CD000951FC817D90759F488819981840F951FEA
:100CE0000296918380838A819B81938382832115DD
:100CF000310529F4F0931901E09318013DC0E90191
:100D0000FB83EA8349915991C40FD51FEC17FD0766
:100D100061F480819181840F951F0296E901998386
:100D20008883828193819B838A83E0E0F0E012963E
:100D30008D919C911397009719F0FD01DC01F7CF7D
:100D40008D919C9111979D012E5F3F4F820F931FB4
:100D500020911601309117012817390769F430974F
:100D600029F4109219011092180102C01382128204
:100D7000B0931701A0931601DF91CF9108959927A1
:100D800088270895FC010590615070400110D8F744
:100D9000809590958E0F9F1F0895DC0101C06D9383
:100DA00041505040E0F70895FC01615070400190BF
:100DB0000110D8F7809590958E0F9F1F08950F937F
:100DC0001F93CF93DF93FB01238121FD03C08FEF9E
:100DD0009FEF2CC022FF16C04681578124813581A8
:100DE0004217530744F4A081B1819D012F5F3F4F0B
:100DF000318320838C93268137812F5F3F4F378348
:100E0000268314C08B01EC01FB010084F185E02DE9
:100E10000995892BE1F6D80116968D919C9117972B
:100E2000019617969C938E931697CE01DF91CF91E2
:100E30001F910F910895FA01AA27283051F120310E
:100E400081F1E8946F936E7F6E5F7F4F8F4F9F4F5E
:100E5000AF4FB1E03ED0B4E03CD0670F781F891FA0
:100E60009A1FA11D680F791F8A1F911DA11D6A0F6E
:100E7000711D811D911DA11D20D009F468943F9121
:100E80002AE0269F11243019305D3193DEF6CF0120
:100E90000895462F4770405D4193B3E00FD0C9F7E6
:100EA000F6CF462F4F70405D4A3318F0495D31FD53
:100EB0004052419302D0A9F7EACFB4E0A6959795A6
:100EC000879577956795BA95C9F70097610571057C
:100ED00008959B01AC010A2E0694579547953795C6
:100EE0002795BA95C9F7620F731F841F951FA01D20
:100EF0000895DB018F939F930E940702BF91AF91EA
:100F0000A29F800D911DA39F900DB29F900D112463
:100F100008952F923F924F925F926F927F928F929D
:100F20009F92AF92BF92CF92DF92EF92FF920F9378
:100F30001F93CF93DF93CDB7DEB7CA1BDB0B0FB682
:100F4000F894DEBF0FBECDBF09942A88398848883F
:100F50005F846E847D848C849B84AA84B984C884D5
:100F6000DF80EE80FD800C811B81AA81B981CE0FCC
:100F7000D11D0FB6F894DEBF0FBECDBFED010895B1
:040F8000F894FFCF13
:0C0F840000001A01200074657374000066
:00000001FF
