:100000000C9434000C94A3000C94FD000C9451004B
:100010000C9451000C9451000C9451000C9451001C
:100020000C9451000C9451000C9451000C9451000C
:100030000C9451000C9451000C9451000C945100FC
:100040000C9451000C9451000C9451000C945100EC
:100050000C9451000C9451000C9451000C945100DC
:100060000C9451000C94510011241FBECFEFD8E026
:10007000DEBFCDBF11E0A0E0B1E0E6E2F1E102C0F9
:1000800005900D92A43DB107D9F721E0A4EDB1E0B0
:1000900001C01D92A33EB207E1F70E948A020C94B0
:1000A00091080C940000CF93DF9300D000D000D0D3
:1000B000CDB7DEB7DC01CE010196FC019F01281B04
:1000C000390B261737071CF42D912193F7CFFC012C
:1000D000E60FF71F10824AE050E060E070E00E94F7
:1000E000F202CB0126960FB6F894DEBF0FBECDBF4D
:1000F000DF91CF910895CF93DF9300D000D000D04F
:10010000CDB7DEB7DC01CE010196FC019F01281BB3
:10011000390B261737071CF42D912193F7CFFC01DB
:10012000E60FF71F108240E150E060E070E00E94AF
:10013000F202CB0126960FB6F894DEBF0FBECDBFFC
:10014000DF91CF9108951F920F920FB60F92112455
:100150002F933F938F939F93EF93FF93F894E091A6
:10016000D601F0E08091840090918500EE0FFF1F92
:10017000E050FF4F9183808310928500109284009D
:100180008091D601882341F18091D5018B3000F513
:10019000E091D601F0E0EE0FFF1FE050FF4F20810D
:1001A0003181E091D601F0E0EE0FFF1FE250FF4FEA
:1001B000808191812817390731F48091D5018F5FB3
:1001C0008093D50109C01092D5011092D60109C0C3
:1001D0008091D601823328F48091D6018F5F80937D
:1001E000D6017894FF91EF919F918F913F912F913C
:1001F0000F900FBE0F901F9018951F920F920FB681
:100200000F9211242F933F938F939F93EF93FF931C
:10021000F894E091D601F0E08091840090918500FF
:10022000EE0FFF1FEC59FE4F9183808310928500E3
:1002300010928400E091D601F0E0EE0FFF1FEC5920
:10024000FE4F20813181E091D601F0E0EE0FFF1FDB
:10025000E050FF4F808191812817390759F4809130
:10026000D5018F5F8093D5018091D6018F5F8093F8
:10027000D60102C01092D5018091D601823311F4CB
:100280001092D6017894FF91EF919F918F913F91B9
:100290002F910F900FBE0F901F9018951092800015
:1002A000E1E8F0E010828081826080831092850016
:1002B00010928400089521E030E040E050E068E0D2
:1002C00070E080E895E20E949D01F894529853985E
:1002D000E9E6F0E0108280818B7F808380818860F6
:1002E0008083808181608083808182608083E89ABE
:1002F000E9980E944E01789408959091C00095FF6E
:10030000FCCF8093C60080E090E008958091C0000B
:1003100087FFFCCF8091C60090E0089566E871E009
:100320008DE791E00E941104E7EDF1E09183808375
:1003300093838283958384830895CF93DF93DC0135
:10034000EB011092C0001092C1001092C200423026
:10035000510571F043305105B1F0452BC1F4809146
:10036000C2008F7E8093C2008091C2008F7D08C042
:100370008091C2008F7E8093C2008091C200806213
:100380008093C2000EC08091C2008061F4CF909132
:10039000C2009F7E9093C2009091C2009F7D909377
:1003A000C2009091C2002130310511F4977F01C045
:1003B00098609093C2009091C00092609093C000AA
:1003C0008091C00081FD05C020E130E040E050E0B8
:1003D00004C028E030E040E050E00E94D0029B01E1
:1003E000AC0160E074E284EF90E00E94AE02215024
:1003F00031093093C5002093C400C730D10531F1D5
:1004000074F4C530D105C9F0269751F58091C2002A
:100410008D7F8093C2008091C2008B7F1BC0C8304B
:10042000D105F1F02997E1F48091C20082608093B8
:10043000C2008091C20084600DC08091C2008D7F97
:100440008093C2008091C2008B7F12C08091C20055
:100450008D7F09C08093C2008091C10084600DC06F
:100460008091C20082608093C2008091C20084604B
:100470008093C2008091C1008B7F8093C1008091E6
:10048000C10080618093C1008091C1008860809329
:10049000C1000E948E0180E090E0DF91CF9108952D
:1004A000CF92DF92FF920F931F93CF93DF938C0134
:1004B000F62E6C01C0E0D0E0C331D105A1F080E0A0
:1004C00090E00E9486018F1105C0F801EC0FFD1F1E
:1004D000108209C090EE980F9F3570F72196F601B3
:1004E00081936F01E9CFF801138AC231D10531F44C
:1004F0008289F81629F08FEF9FEF04C0CE0102C069
:1005000082E190E0DF91CF911F910F91FF90DF90FA
:10051000CF9008950E945B010EEC11E08091D6010E
:100520008233E1F7E898C0E0D0E0FE01EE0FFF1F54
:10053000E050FF4F808191819F938F931F930F9382
:100540000E945C0421960F900F900F900F90C33380
:10055000D10559F78091D601E89AE0CFA1E21A2E91
:10056000AA1BBB1BFD010DC0AA1FBB1FEE1FFF1F57
:10057000A217B307E407F50720F0A21BB30BE40BA7
:10058000F50B661F771F881F991F1A9469F76095EE
:100590007095809590959B01AC01BD01CF010895A8
:1005A000B7FF0C94D8020E94D802821B930B0895C7
:1005B0000E94E302A59F900DB49F900DA49F800D13
:1005C000911D11240895A29FB001B39FC001A39F64
:1005D000700D811D1124911DB29F700D811D11247C
:1005E000911D0895A0E0B0E0E8EFF2E00C945B0804
:1005F0005C016B017A016115710519F0FB019183B2
:100600008083E114F10429F0C7010297839708F071
:10061000E5C0E5012196F5011081812F90E00E944F
:100620000804892B11F05E01F4CF1D3229F42196C4
:10063000F501118101E007C01B3221F4E50122968A
:10064000F501118100E0E114F10409F1F0E1EF1688
:10065000F10429F43FC010E3E114F10421F128E092
:10066000E216F10401F154F4E2E0EE16F10421F592
:10067000812C912CA12CB0E4BB2E3EC0FAE0EF16E9
:10068000F10439F020E1E216F104B1F430C0103386
:1006900019F1FAE0EF2EF12CACEC8A2E982CA82C54
:1006A000ACE0BA2E29C078E0E72EF12C812C912CF9
:1006B000A12CE0E1BE2E20C060E070E080E090E878
:1006C00097010F2C000C440B550B0E94AE02490100
:1006D0005A0112C0103359F488818F7D883509F092
:1006E000BACF19812296026080E1E82EF12C812C8C
:1006F000912CA12C68E0B62E40E060E070E0CB01C8
:1007000027010F2C000C66087708FE0150ED352EEE
:10071000310E29E0231570F42FEB210F2A3118F444
:1007200039EC332E06C02FE9210F2A3118F529EABA
:10073000322E310E232D30E02E153F05DCF447FD1F
:1007400016C086169706A806B90670F0A301920196
:100750000E944A08630D711D811D911D6130710554
:10076000810520E8920710F04FEF01C041E021968B
:100770001081CBCF202F2170C114D10471F04423FC
:1007800029F02197F601D183C08307C001FF19C06A
:100790002297F601D183C08314C047FF12C02223E1
:1007A00029F060E070E080E090E804C06FEF7FEF38
:1007B0008FEF9FE722E230E03093DE012093DD01EE
:1007C00009C0222381F090958095709561957F4FA7
:1007D0008F4F9F4F462F372F282F12C040E030E019
:1007E00020E090E00DC097FFF5CF82E290E090937B
:1007F000DE018093DD016FEF7FEF8FEF9FE7EACFA0
:10080000642F732F822FCDB7DEB7E1E10C94770808
:1008100091110C949007803219F089508550C8F7D7
:1008200008950F931F93CF93DF93009731F46115D1
:10083000710519F480E090E03AC08B01EC016EE0A4
:1008400070E081E090E00E945306FC01892B91F357
:1008500080E883830115110571F01387028781E811
:1008600083838091D7019091D801892B21F4F09353
:10087000D801E093D7012097C9F0D187C087838141
:10088000826083838091D9019091DA01892B71F480
:10089000F093DA01E093D9018091DB019091DC01C2
:1008A000892B21F4F093DC01E093DB01CF01DF9190
:1008B000CF911F910F910895A0E0B0E0E2E6F4E03F
:1008C0000C946A08AE014B5F5F4FFA016191719120
:1008D000AF018091D9019091DA010E947204E2E0A7
:1008E0000C948608ABE0B0E0E8E7F4E00C945A081A
:1008F0006C017B018A01FC0117821682838181FFD2
:10090000CCC1CE0101963C01F6019381F70193FD24
:10091000859193FF81917F01882309F4BAC18532C3
:1009200039F493FD859193FF81917F01853229F4FC
:10093000B60190E00E94B007E7CF912C212C312C1A
:10094000FFE1F315D8F08B3279F038F4803279F08A
:100950008332A1F4232D20611DC08D3261F08033DC
:1009600069F4232D216016C0832D8260382EE32D7B
:10097000E4603E2E2AC0F32DF8601DC037FC2DC068
:1009800020ED280F2A3040F08E32B9F436FC81C1B8
:10099000232D2064322E19C036FE06C08AE0989EB0
:1009A000200D1124922E11C0EAE02E9E200D11245C
:1009B000222EF32DF0623F2E08C08C3621F4832DB9
:1009C0008068382E02C0883641F4F70193FD859186
:1009D00093FF81917F018111B3CF982F9F7D955413
:1009E000933028F40C5F1F4F9FE399830DC083362B
:1009F00031F0833771F0833509F059C021C0F80117
:100A0000808189830E5F1F4F88248394912C53012A
:100A100013C02801F2E04F0E511CF801A080B180F4
:100A200036FE03C0692D70E002C06FEF7FEFC50195
:100A30000E94A5074C018201F32DFF773F2E16C0BF
:100A4000280122E0420E511CF801A080B18036FE40
:100A500003C0692D70E002C06FEF7FEFC5010E94F7
:100A600093074C01F32DF0683F2E820133FC1BC02D
:100A7000822D90E088169906B0F4B60180E290E0ED
:100A80000E94B0072A94F4CFF50137FC859137FE18
:100A900081915F01B60190E00E94B00721102A9475
:100AA00021E0821A91088114910471F7E8C084361C
:100AB00011F0893641F5F80137FE07C06081718178
:100AC000828193810C5F1F4F08C060817181072E66
:100AD000000C880B990B0E5F1F4FF32DFF763F2EF6
:100AE00097FF09C090958095709561957F4F8F4FC6
:100AF0009F4FF0683F2E2AE030E0A3010E94EC07F0
:100B0000882E861845C0853731F4232D2F7EB22ECE
:100B10002AE030E025C0932D997FB92E8F36C1F0A1
:100B200018F4883579F0B5C0803719F0883721F08E
:100B3000B0C0E92FE061BE2EB4FE0DC0FB2DF46005
:100B4000BF2E09C034FE0AC0292F2660B22E06C06F
:100B500028E030E005C020E130E002C020E132E0D2
:100B6000F801B7FE07C060817181828193810C5FBB
:100B70001F4F06C06081718180E090E00E5F1F4FC3
:100B8000A3010E94EC07882E8618FB2DFF773F2ECD
:100B900036FE0DC0232D2E7FA22E891458F434FE6C
:100BA0000BC032FC09C0832D8E7EA82E05C0B82C48
:100BB000A32C03C0B82C01C0B92CA4FE0FC0FE01A9
:100BC000E80DF11D8081803321F49A2D997EA92EA4
:100BD00009C0A2FE06C0B394B39404C08A2D8678DF
:100BE00009F0B394A3FC11C0A0FE06C0B21488F4AF
:100BF000280C922C9B180EC0B21460F4B60180E24F
:100C000090E00E94B007B394F7CFB21418F42B18F9
:100C100002C0982C212CA4FE10C0B60180E390E005
:100C20000E94B007A2FE17C0A1FC03C088E790E0B5
:100C300002C088E590E0B6010CC08A2D867859F094
:100C4000A1FE02C08BE201C080E2A7FC8DE2B601EA
:100C500090E00E94B007891438F4B60180E390E078
:100C60000E94B0079A94F7CF8A94F301E80DF11D22
:100C70008081B60190E00E94B0078110F5CF22205C
:100C800009F442CEB60180E290E00E94B0072A94B7
:100C9000F6CFF6018681978102C08FEF9FEF2B96EA
:100CA000E2E10C9476080F931F93CF93DF93869F16
:100CB0008001879F100D969F100D1124C8010E947E
:100CC0006F06EC01009729F0A80160E070E00E9437
:100CD0009E07CE01DF91CF911F910F9108950F9341
:100CE0001F93CF93DF938230910510F482E090E060
:100CF000E091E101F091E20120E030E0A0E0B0E01D
:100D0000309719F1408151810281138148175907A9
:100D1000C8F08417950769F4109731F012960C9378
:100D2000129713961C9327C00093E1011093E201E0
:100D300022C02115310519F04217530718F49A0102
:100D4000BD01EF01DF01F801DBCF21153105F9F01D
:100D5000281B390B2430310580F48A819B81611571
:100D6000710521F0FB019383828304C09093E2011B
:100D70008093E101FE01329644C0FE01E20FF31FB1
:100D80008193919322503109398328833AC020916D
:100D9000DF013091E001232B41F42091CA01309111
:100DA000CB013093E0012093DF012091C801309105
:100DB000C9012115310541F42DB73EB74091CC0151
:100DC0005091CD01241B350BE091DF01F091E00142
:100DD000E217F307A0F42E1B3F0B2817390778F012
:100DE000AC014E5F5F4F2417350748F04E0F5F1F71
:100DF0005093E0014093DF018193919302C0E0E0C2
:100E0000F0E0CF01DF91CF911F910F910895CF9323
:100E1000DF93009709F481C0FC013297138212829C
:100E2000A091E101B091E201109781F4208131811C
:100E3000820F931F2091DF013091E00128173907BD
:100E400051F5F093E001E093DF0167C0ED0120E090
:100E500030E0CE17DF0740F44A815B819E014115E7
:100E60005105F1F0EA01F5CFD383C283408151816E
:100E7000840F951FC817D90759F488819981840F69
:100E8000951F0296918380838A819B8193838283BD
:100E90002115310529F4F093E201E093E1013DC011
:100EA000E901FB83EA8349915991C40FD51FEC17DF
:100EB000FD0761F480819181840F951F0296E901FD
:100EC00099838883828193819B838A83E0E0F0E029
:100ED00012968D919C911397009719F0FD01DC01FA
:100EE000F7CF8D919C9111979D012E5F3F4F820FFF
:100EF000931F2091DF013091E0012817390769F431
:100F0000309729F41092E2011092E10102C013829D
:100F10001282B093E001A093DF01DF91CF91089599
:100F2000992788270895FC010590615070400110B1
:100F3000D8F7809590958E0F9F1F0895DC0101C012
:100F40006D9341505040E0F70895FC0161507040AE
:100F500001900110D8F7809590958E0F9F1F0895EE
:100F60000F931F93CF93DF93FB01238121FD03C0D8
:100F70008FEF9FEF2CC022FF16C04681578124813E
:100F800035814217530744F4A081B1819D012F5F41
:100F90003F4F318320838C93268137812F5F3F4FD2
:100FA0003783268314C08B01EC01FB010084F1859B
:100FB000E02D0995892BE1F6D80116968D919C912B
:100FC0001797019617969C938E931697CE01DF91F3
:100FD000CF911F910F910895FA01AA27283051F15E
:100FE000203181F1E8946F936E7F6E5F7F4F8F4F5A
:100FF0009F4FAF4FB1E03ED0B4E03CD0670F781FB9
:10100000891F9A1FA11D680F791F8A1F911DA11D9D
:101010006A0F711D811D911DA11D20D009F46894D6
:101020003F912AE0269F11243019305D3193DEF67E
:10103000CF010895462F4770405D4193B3E00FD034
:10104000C9F7F6CF462F4F70405D4A3318F0495D1F
:1010500031FD4052419302D0A9F7EACFB4E0A69502
:101060009795879577956795BA95C9F70097610524
:10107000710508959B01AC010A2E0694579547957A
:1010800037952795BA95C9F7620F731F841F951F6F
:10109000A01D0895DB018F939F930E94D802BF91FA
:1010A000AF91A29F800D911DA39F900DB29F900DB7
:1010B000112408952F923F924F925F926F927F92E8
:1010C0008F929F92AF92BF92CF92DF92EF92FF9258
:1010D0000F931F93CF93DF93CDB7DEB7CA1BDB0B04
:1010E0000FB6F894DEBF0FBECDBF09942A883988A9
:1010F00048885F846E847D848C849B84AA84B984B0
:10110000C884DF80EE80FD800C811B81AA81B981BB
:10111000CE0FD11D0FB6F894DEBF0FBECDBFED01CF
:061120000895F894FFCFD2
:10112600FF000000000000000000000000000000BA
:1011360000000000000000000000000000000000A9
:101146000000000000000000000000000000000099
:101156000000000000000000000000000000000089
:101166000000000000000000000000000000000079
:101176000000000000000000000000000000000069
:1011860000000000FF00000000000000000000005A
:101196000000000000000000000000000000000049
:1011A6000000000000000000000000000000000039
:1011B6000000000000000000000000000000000029
:1011C6000000000000000000000000000000000019
:1011D6000000000000000000000000000000000009
:1011E60000000000000000000000E301200025646C
:0411F6002C200000A9
:00000001FF
